S00E000054494D4552532E7372656342
S11300000C942A000C9447000C9447000C9447006D
S11300100C9447000C9447000C9447000C94470040
S11300200C9447000C9447000C9447000C944D0129
S11300300C9447000C9447000C9447000C94470020
S11300400C9447000C9447000C9447000C94470010
S11300500C94470011241FBECFE5D8E0DEBFCDBF0E
S113006010E0A0E6B0E0EAE7F4E002C005900D92EB
S1130070A236B107D9F720E0A2E6B0E001C01D9294
S1130080AA36B207E1F70E9433010C943B020C94A8
S11300900000813011F130F08230D1F1833009F465
S11300A052C00895413059F481E090E002C0880FB5
S11300B0991F6A95E2F79AB3892B8ABB0895411177
S11300C05CC081E090E002C0880F991F6A95E2F756
S11300D080959AB389238ABB0895413059F481E00D
S11300E090E002C0880F991F6A95E2F797B3892BB5
S11300F087BB0895411141C081E090E002C0880FA0
S1130100991F6A95E2F7809597B3892387BB089571
S1130110413059F481E090E002C0880F991F6A953C
S1130120E2F794B3892B84BB0895411126C081E082
S113013090E002C0880F991F6A95E2F7809594B306
S1130140892384BB0895413059F481E090E002C0D2
S1130150880F991F6A95E2F791B3892B81BB0895A3
S113016041110BC081E090E002C0880F991F6A958D
S1130170E2F7809591B3892381BB0895813011F111
S113018030F08230D1F1833009F452C00895413007
S113019059F481E090E002C0880F991F6A95E2F754
S11301A09BB3892B8BBB089541115CC081E090E027
S11301B002C0880F991F6A95E2F780959BB3892343
S11301C08BBB0895413059F481E090E002C0880F60
S11301D0991F6A95E2F798B3892B88BB089541115A
S11301E041C081E090E002C0880F991F6A95E2F750
S11301F0809598B3892388BB0895413059F481E0F0
S113020090E002C0880F991F6A95E2F795B3892B95
S113021085BB0895411126C081E090E002C0880F9B
S1130220991F6A95E2F7809595B3892385BB089554
S1130230413059F481E090E002C0880F991F6A951B
S1130240E2F792B3892B82BB089541110BC081E080
S113025090E002C0880F991F6A95E2F7809592B3E7
S1130260892382BB0895E2E6F0E01082118281E0E6
S1130270682F828385E0782F838340E050E080916B
S113028066000E94970183E10E94330241E060E02E
S113029080E00E9449007894FFCF1F920F920FB61E
S11302A00F9211242F933F934F935F936F937F93F8
S11302B08F939F93AF93BF93EF93FF9380916700C6
S11302C0909168000E943602E0916700F091680006
S11302D0809160009081981314C041E060E080E058
S11302E00E94BE001092600080E791E1A1E0B0E0BE
S11302F00197A109B109E1F740E060E080E00E94C4
S1130300BE00809160008F5F80936000FF91EF9149
S1130310BF91AF919F918F917F916F915F914F9119
S11303203F912F910F900FBE0F901F901895CF9370
S1130330DF9300D000D01F92CDB7DEB749835A8334
S11303406B837C838D83413089F028F04230C9F07F
S1130350433011F12BC083B794B78F7B94BF83BF15
S113036083B794B7877F94BF83BF20C083B794B704
S11303708F7B94BF83BF83B794B7886094BF83BFD8
S113038015C083B794B7806494BF83BF83B794B711
S1130390877F94BF83BF0AC083B794B7806494BF38
S11303A083BF83B794B7886094BF83BF83B794B780
S11303B0887F992794BF83BF83B794B72C81822BFE
S11303C094BF83BF8A81882319F0813039F00BC030
S11303D089B79AB781609ABF89BF05C089B79AB7B0
S11303E08E7F9ABF89BF8B81882319F0813039F0C1
S11303F00BC089B79AB782609ABF89BF05C089B715
S11304009AB78D7F9ABF89BF8D81813079F018F0BA
S11304108230B9F020C083B794B78F7D94BF83BF77
S113042083B794B78F7E94BF83BF15C083B794B747
S1130430806294BF83BF83B794B78F7E94BF83BF1A
S11304400AC083B794B7806294BF83BF83B794B75D
S1130450806194BF83BF0F900F900F900F900F9007
S1130460DF91CF91089580936900089520916900E8
S10D0470FC0120830895F894FFCFE7
S105047A01007B
S9030000FC
