:100000000C942A000C943F000C943F000C943F0089
:100010000C943F000C943F000C943F000C943F0064
:100020000C943F000C943F000C943F000C943F0054
:100030000C943F000C943F000C943F000C943F0044
:100040000C943F000C943F000C943F000C943F0034
:100050000C943F0011241FBECFE5D8E0DEBFCDBF1A
:1000600010E0A0E6B0E0EAE8F9E002C005900D92E9
:10007000AA36B107D9F70E94C3010C94C3040C94AB
:100080000000813011F130F08230D1F1833009F479
:1000900052C00895413059F481E090E002C0880FC9
:1000A000991F6A95E2F79BB3892B8BBB0895411189
:1000B0005CC081E090E002C0880F991F6A95E2F76A
:1000C00080959BB389238BBB0895413059F481E01F
:1000D00090E002C0880F991F6A95E2F798B3892BC8
:1000E00088BB0895411141C081E090E002C0880FB3
:1000F000991F6A95E2F7809598B3892388BB089584
:10010000413059F481E090E002C0880F991F6A9550
:10011000E2F795B3892B85BB0895411126C081E094
:1001200090E002C0880F991F6A95E2F7809595B319
:10013000892385BB0895413059F481E090E002C0E5
:10014000880F991F6A95E2F792B3892B82BB0895B5
:1001500041110BC081E090E002C0880F991F6A95A1
:10016000E2F7809592B3892382BB0895813079F0BC
:1001700028F08230A9F08330E1F00895613019F45D
:100180008FEF8ABB089561111CC01ABA08956130BF
:1001900019F48FEF87BB0895611113C017BA089542
:1001A000613019F48FEF84BB089561110AC014BA4D
:1001B0000895613019F48FEF81BB0895611101C07A
:1001C00011BA0895813041F028F0823039F083303F
:1001D00039F008956BBB089568BB089565BB089519
:1001E00062BB089541E061E081E00E94410083ED3F
:1001F00090E30197F1F700C0000040E061E081E08A
:100200000E9441000895CF93C82F61E080E00E94D2
:10021000B60040E062E081E00E94410040E060E022
:1002200081E00E9441006C2F80E00E94E2000E9469
:10023000F200CF910895CF93C82F61E080E00E9433
:10024000B60041E062E081E00E94410040E060E0F1
:1002500081E00E9441006C2F80E00E94E2000E9439
:10026000F200CF91089581E00E940301089587E88C
:1002700093E10197F1F700C0000061E080E00E9487
:10028000B60061E081E00E94B60040E060E081E0FD
:100290000E94410040E061E081E00E94410040E0B6
:1002A00062E081E00E94410088E30E9403010E9415
:1002B000330186E00E94030180E80E9403018FE081
:1002C0000E94030108950F931F93CF93DF93D82FBC
:1002D000C92F61E080E00E94B60041E062E081E069
:1002E0000E94410040E060E081E00E9441000D2F4B
:1002F0001C2FC0E011C0CF5F0E941B01C03121F450
:1003000080EC0E94030108C0C03231F40E94330126
:1003100080E80E940301C0E0F80181918F01811102
:10032000EACFDF91CF911F910F9108950F931F9303
:10033000CF93DF93CDB7DEB727970FB6F894DEBF24
:100340000FBECDBF1F928F9380E690E09F938F9357
:100350008E010F5F1F4F1F930F930E94D901C80199
:100360000E9463010F900F900F900F900F900F90CD
:1003700027960FB6F894DEBF0FBECDBFDF91CF91A9
:100380001F910F9108950E94370181E60E941B0181
:1003900083E690E00E9463018AE00E94960188E370
:1003A0000E941B0183ED90E30197F1F700C000006C
:1003B000F9CFAEE0B0E0EFEDF1E00C949A040D89D6
:1003C0001E8986E08C831A8309838FEF9FE79E83C3
:1003D0008D83AE01475E5F4F6F89788DCE010196A8
:1003E0000E94FB01EF81F885E00FF11F10822E962D
:1003F000E4E00C94B604ABE0B0E0E1E0F2E00C9491
:100400008C046C017B018A01FC01178216828381B6
:1004100081FFCCC1CE0101963C01F6019381F70129
:1004200093FD859193FF81917F01882309F4BAC1DF
:10043000853239F493FD859193FF81917F01853257
:1004400029F4B60190E00E94F203E7CF912C212C11
:10045000312CFFE1F315D8F08B3279F038F480328B
:1004600079F08332A1F4232D20611DC08D3261F01B
:10047000803369F4232D216016C0832D8260382ECD
:10048000E32DE4603E2E2AC0F32DF8601DC037FC3A
:100490002DC020ED280F2A3040F08E32B9F436FC02
:1004A00081C1232D2064322E19C036FE06C08AE099
:1004B000989E200D1124922E11C0EAE02E9E200D50
:1004C0001124222EF32DF0623F2E08C08C3621F429
:1004D000832D8068382E02C0883641F4F70193FDE1
:1004E000859193FF81917F018111B3CF982F9F7DDB
:1004F0009554933028F40C5F1F4F9FE399830DC0F0
:10050000833631F0833771F0833509F059C021C04B
:10051000F801808189830E5F1F4F88248394912C7A
:10052000530113C02801F2E04F0E511CF801A080C6
:10053000B18036FE03C0692D70E002C06FEF7FEF1F
:10054000C5010E94E7034C018201F32DFF773F2E86
:1005500016C0280122E0420E511CF801A080B18093
:1005600036FE03C0692D70E002C06FEF7FEFC5015A
:100570000E94DC034C01F32DF0683F2E820133FC16
:100580001BC0822D90E088169906B0F4B60180E277
:1005900090E00E94F2032A94F4CFF50137FC859194
:1005A00037FE81915F01B60190E00E94F2032110B5
:1005B0002A9421E0821A91088114910471F7E8C00D
:1005C000843611F0893641F5F80137FE07C06081A5
:1005D0007181828193810C5F1F4F08C0608171819E
:1005E000072E000C880B990B0E5F1F4FF32DFF7623
:1005F0003F2E97FF09C090958095709561957F4F2C
:100600008F4F9F4FF0683F2E2AE030E0A3010E94F9
:100610002E04882E861845C0853731F4232D2F7E71
:10062000B22E2AE030E025C0932D997FB92E8F3667
:10063000C1F018F4883579F0B5C0803719F08837E3
:1006400021F0B0C0E92FE061BE2EB4FE0DC0FB2D3D
:10065000F460BF2E09C034FE0AC0292F2660B22ED6
:1006600006C028E030E005C020E130E002C020E113
:1006700032E0F801B7FE07C0608171818281938109
:100680000C5F1F4F06C06081718180E090E00E5FBB
:100690001F4FA3010E942E04882E8618FB2DFF7782
:1006A0003F2E36FE0DC0232D2E7FA22E891458F426
:1006B00034FE0BC032FC09C0832D8E7EA82E05C0EF
:1006C000B82CA32C03C0B82C01C0B92CA4FE0FC0B9
:1006D000FE01E80DF11D8081803321F49A2D997E71
:1006E000A92E09C0A2FE06C0B394B39404C08A2DFB
:1006F000867809F0B394A3FC11C0A0FE06C0B21422
:1007000088F4280C922C9B180EC0B21460F4B60129
:1007100080E290E00E94F203B394F7CFB21418F491
:100720002B1802C0982C212CA4FE10C0B60180E327
:1007300090E00E94F203A2FE17C0A1FC03C088E76C
:1007400090E002C088E590E0B6010CC08A2D867862
:1007500059F0A1FE02C08BE201C080E2A7FC8DE24D
:10076000B60190E00E94F203891438F4B60180E3E8
:1007700090E00E94F2039A94F7CF8A94F301E80D77
:10078000F11D8081B60190E00E94F2038110F5CF47
:10079000222009F442CEB60180E290E00E94F203EA
:1007A0002A94F6CFF6018681978102C08FEF9FEFE2
:1007B0002B96E2E10C94A804FC0105906150704076
:1007C0000110D8F7809590958E0F9F1F0895FC011A
:1007D0006150704001900110D8F7809590958E0F70
:1007E0009F1F08950F931F93CF93DF93FB012381E6
:1007F00021FD03C08FEF9FEF2CC022FF16C0468162
:100800005781248135814217530744F4A081B18177
:100810009D012F5F3F4F318320838C932681378149
:100820002F5F3F4F3783268314C08B01EC01FB0100
:100830000084F185E02D0995892BE1F6D801169603
:100840008D919C911797019617969C938E9316976E
:10085000CE01DF91CF911F910F910895FA01AA2740
:10086000283051F1203181F1E8946F936E7F6E5FF3
:100870007F4F8F4F9F4FAF4FB1E03ED0B4E03CD0A1
:10088000670F781F891F9A1FA11D680F791F8A1F84
:10089000911DA11D6A0F711D811D911DA11D20D0EB
:1008A00009F468943F912AE0269F11243019305DA5
:1008B0003193DEF6CF010895462F4770405D419396
:1008C000B3E00FD0C9F7F6CF462F4F70405D4A33E3
:1008D00018F0495D31FD4052419302D0A9F7EACFAB
:1008E000B4E0A6959795879577956795BA95C9F7DA
:1008F00000976105710508959B01AC010A2E0694CD
:100900005795479537952795BA95C9F7620F731F85
:10091000841F951FA01D08952F923F924F925F92C2
:100920006F927F928F929F92AF92BF92CF92DF92FF
:10093000EF92FF920F931F93CF93DF93CDB7DEB764
:10094000CA1BDB0B0FB6F894DEBF0FBECDBF0994F8
:100950002A88398848885F846E847D848C849B844F
:10096000AA84B984C884DF80EE80FD800C811B815D
:10097000AA81B981CE0FD11D0FB6F894DEBF0FBE8C
:0A098000CDBFED010895F894FFCFFC
:0A098A002564005348414459000061
:00000001FF
