:100000000C942A000C943C000C943C000C943C0092
:100010000C943C000C943C000C943C000C943C0070
:100020000C943C000C943C000C943C000C943C0060
:100030000C943C000C943C000C943C000C943C0050
:100040000C943C000C943C000C943C000C943C0040
:100050000C943C0011241FBECFE5D8E0DEBFCDBF1D
:1000600020E0A0E6B0E001C01D92AA36B207E1F799
:100070000E943E000C94F7000C940000E0E6F0E0D3
:100080001082118283E0482F84831582168200E05B
:1000900010E0209162003091630050E060E07091C8
:1000A000670080916800909169000E945C008AE07E
:1000B00090E00E94EB00FFCFEF92FF920F931F930F
:1000C000CF93DF93CDB7DEB72A970FB6F894DEBF94
:1000D0000FBECDBF09831A832B833C834D835E8380
:1000E0006F83788789879A87011112C0111107C021
:1000F00059980F2EF3E3EF2EF02DF12C11C0113093
:1001000079F4599A0F2EF7E6EF2EF02DF12C08C056
:10011000013031F40F2EFFE9EF2EF02DFF24F39480
:10012000E9B8F0BC213011F4539A03C0211101C089
:100130005398313011F4549A03C0311101C05498CE
:10014000443029F4529A80B5866880BD05C080B5D8
:10015000440F8068482B40BD20B59E8130E1939FBD
:10016000C0011124922F9068892B80BD80B59F819A
:10017000990F990F990F8068892B80BD80B590E405
:10018000099F800111248068082B00BD2AB1988541
:1001900030E8939FC0011124822B8AB92AB1998536
:1001A00030E4939FC0011124822B8AB92AB19A8529
:1001B00030E2939FC0011124822B8AB92A960FB690
:1001C000F894DEBF0FBECDBFDF91CF911F910F918D
:1001D000FF90EF9008955D9BFECF20916400243046
:1001E00021F42AB19170922B9AB98CB90895F894A0
:0201F000FFCF3F
:00000001FF
