S00E0000455854494E542E737265633A
S11300000C942A000C9464010C9476010C948801DD
S11300100C9434000C9434000C9434000C9434008C
S11300200C9434000C9434000C9434000C9434007C
S11300300C9434000C9434000C9434000C9434006C
S11300400C9434000C9434000C9434000C9434005C
S11300500C94340011241FBECFE5D8E0DEBFCDBF21
S11300600E944D010C949A010C940000813011F10E
S113007030F08230D1F1833009F452C00895413018
S113008059F481E090E002C0880F991F6A95E2F765
S11300909BB3892B8BBB089541115CC081E090E038
S11300A002C0880F991F6A95E2F780959BB3892354
S11300B08BBB0895413059F481E090E002C0880F71
S11300C0991F6A95E2F798B3892B88BB089541116B
S11300D041C081E090E002C0880F991F6A95E2F761
S11300E0809598B3892388BB0895413059F481E001
S11300F090E002C0880F991F6A95E2F795B3892BA7
S113010085BB0895411126C081E090E002C0880FAC
S1130110991F6A95E2F7809595B3892385BB089565
S1130120413059F481E090E002C0880F991F6A952C
S1130130E2F792B3892B82BB089541110BC081E091
S113014090E002C0880F991F6A95E2F7809592B3F8
S1130150892382BB0895813079F028F08230A9F098
S11301608330E1F00895613019F48FEF8ABB08956C
S113017061111CC01ABA0895613019F48FEF87BB5E
S11301800895611113C017BA0895613019F48FEFFF
S113019084BB089561110AC014BA0895613019F43A
S11301A08FEF81BB0895611101C011BA08958130A8
S11301B041F028F0823039F0833039F008956BBB78
S11301C0089568BB089565BB089562BB08958130A6
S11301D069F028F08230C1F0833079F01BC085B714
S11301E08E7F85BF85B78D7F85BF14C085B781603D
S11301F085BF85B78D7F85BF0DC085B78E7F85BFD1
S113020085B7826085BF06C085B7816085BF85B725
S1130210826085BF8FB780688FBF8BB780648BBFC8
S11302200895813069F028F08230C1F0833079F08C
S11302301BC085B78B7F85BF85B7877F85BF14C0FB
S113024085B7846085BF85B7877F85BF0DC085B7B7
S11302508B7F85BF85B7886085BF06C085B78460FE
S113026085BF85B7886085BF8FB780688FBF8BB720
S113027080688BBF0895823031F0833039F484B7BD
S11302808F7B84BF03C084B7806484BF8FB78068CA
S11302908FBF8BB780628BBF08956FEF83E00E949E
S11302A0D70041E062E081E00E94360061E080E036
S11302B00E94AB0082E00E94E70081E00E941101ED
S11302C083E00E943B01FFCF1F920F920FB60F9263
S11302D011248F939F939BB381E089278BBB9F91BC
S11302E08F910F900FBE0F901F9018951F920F9231
S11302F00FB60F9211248F939F939BB382E08927AB
S11303008BBB9F918F910F900FBE0F901F901895EC
S11303101F920F920FB60F9211248F939F939BB34A
S113032084E089278BBB9F918F910F900FBE0F9014
S10B03301F901895F894FFCF0B
S9030000FC
