:100000000C942A000C943C000C943C000C943C0092
:100010000C943C000C943C000C943C000C943C0070
:100020000C943C000C943C000C943C000C943C0060
:100030000C943C000C943C000C943C000C943C0050
:100040000C941E010C943C000C943C000C943C005D
:100050000C943C0011241FBECFE5D8E0DEBFCDBF1D
:1000600020E0A0E6B0E001C01D92A036B207E1F7A3
:100070000E94D6000C944E010C940000379A08950B
:10008000369A0895CF93DF93CDB7DEB727970FB693
:10009000F894DEBF0FBECDBF29833A834B835C83C8
:1000A0006D837E838F8386B1887F86B996B18D817B
:1000B000892B86B9359826B19F8130E2939FC00184
:1000C0001124822B86B9339896B18E81880F880FC0
:1000D000880F892B86B987B1807E87B997B18B81CC
:1000E000892B87B987B18F7387B927B19A8130E49B
:1000F000939FC0011124822B87B93D9827B19C8121
:1001000030E2939FC0011124822B87B980B78F7191
:1001100080BF20B7998130E2939FC0011124822BC8
:1001200080BF27960FB6F894DEBF0FBECDBFDF911C
:10013000CF910895813079F028F08230A9F0833092
:10014000E1F00895613019F48FEF8ABB08956111D1
:100150001CC01ABA0895613019F48FEF87BB089557
:10016000611113C017BA0895613019F48FEF84BB81
:10017000089561110AC014BA0895613019F48FEF1F
:1001800081BB0895611101C011BA0895813041F019
:1001900028F0823039F0833039F008956BBB089530
:1001A00068BB089565BB089562BB0895CF93DF9344
:1001B000CDB7DEB727970FB6F894DEBF0FBECDBF21
:1001C00060E080E00E949A0061E082E00E949A0074
:1001D00061E083E00E949A001F821B8287E08D838A
:1001E00081E08E831C8283E08A830E943E00298105
:1001F0003A814B815C816D817E818F810E944200BA
:1002000078942FE986E891E0215080409040E1F712
:1002100000C0000060E083E00E94C60060E082E071
:100220000E94C6002FE986E891E02150804090406E
:10023000E1F700C000000E944000E3CF1F920F9240
:100240000FB60F9211242F933F934F935F936F93A9
:100250007F938F939F93AF93BF93EF93FF9364B17B
:1002600083E00E94C60065B182E00E94C60087E874
:1002700093E10197F1F700C00000FF91EF91BF916A
:10028000AF919F918F917F916F915F914F913F912E
:100290002F910F900FBE0F901F901895F894FFCFDD
:00000001FF
