S00B000044494F2E737265633D
S11300000C942A000C9434000C9434000C943400A6
S11300100C9434000C9434000C9434000C9434008C
S11300200C9434000C9434000C9434000C9434007C
S11300300C9434000C9434000C9434000C9434006C
S11300400C9434000C9434000C9434000C9434005C
S11300500C94340011241FBECFE5D8E0DEBFCDBF21
S11300600E9420010C9442010C940000813011F193
S113007030F08230D1F1833009F452C00895413018
S113008059F481E090E002C0880F991F6A95E2F765
S11300909AB3892B8ABB089541115CC081E090E03A
S11300A002C0880F991F6A95E2F780959AB3892355
S11300B08ABB0895413059F481E090E002C0880F72
S11300C0991F6A95E2F797B3892B87BB089541116D
S11300D041C081E090E002C0880F991F6A95E2F761
S11300E0809597B3892387BB0895413059F481E003
S11300F090E002C0880F991F6A95E2F794B3892BA8
S113010084BB0895411126C081E090E002C0880FAD
S1130110991F6A95E2F7809594B3892384BB089567
S1130120413059F481E090E002C0880F991F6A952C
S1130130E2F791B3892B81BB089541110BC081E093
S113014090E002C0880F991F6A95E2F7809591B3F9
S1130150892381BB0895813011F130F08230D1F1CF
S1130160833009F452C00895413059F481E090E09D
S113017002C0880F991F6A95E2F79BB3892B8BBB4A
S1130180089541115CC081E090E002C0880F991F7E
S11301906A95E2F780959BB389238BBB0895413020
S11301A059F481E090E002C0880F991F6A95E2F744
S11301B098B3892B88BB0895411141C081E090E038
S11301C002C0880F991F6A95E2F7809598B3892336
S11301D088BB0895413059F481E090E002C0880F53
S11301E0991F6A95E2F795B3892B85BB0895411150
S11301F026C081E090E002C0880F991F6A95E2F75B
S1130200809595B3892385BB0895413059F481E0E5
S113021090E002C0880F991F6A95E2F792B3892B88
S113022082BB089541110BC081E090E002C0880FA9
S1130230991F6A95E2F7809592B3892382BB08954A
S113024041E060E080E00E94360041E060E080E050
S11302500E94AB002FE38DE093E02150804090405A
S1130260E1F700C0000040E060E080E00E94AB00E5
S11302702FE38DE093E0215080409040E1F700C0EF
S10B02800000E3CFF894FFCF66
S9030000FC
