S00E00006B65797061642E7372656398
S11300000C942A000C9447000C9447000C9447006D
S11300100C9447000C9447000C9447000C94470040
S11300200C9447000C9447000C9447000C94470030
S11300300C9447000C9447000C9447000C94470020
S11300400C9447000C9447000C9447000C94470010
S11300500C94470011241FBECFE5D8E0DEBFCDBF0E
S113006010E0A0E6B0E0E0E9F7E002C005900D92F0
S1130070A838B107D9F720E0A8E8B0E001C01D9284
S1130080AD38B207E1F70E9453030C94C6030C94F5
S11300900000813011F130F08230D1F1833009F465
S11300A052C00895413059F481E090E002C0880FB5
S11300B0991F6A95E2F79AB3892B8ABB0895411177
S11300C05CC081E090E002C0880F991F6A95E2F756
S11300D080959AB389238ABB0895413059F481E00D
S11300E090E002C0880F991F6A95E2F797B3892BB5
S11300F087BB0895411141C081E090E002C0880FA0
S1130100991F6A95E2F7809597B3892387BB089571
S1130110413059F481E090E002C0880F991F6A953C
S1130120E2F794B3892B84BB0895411126C081E082
S113013090E002C0880F991F6A95E2F7809594B306
S1130140892384BB0895413059F481E090E002C0D2
S1130150880F991F6A95E2F791B3892B81BB0895A3
S113016041110BC081E090E002C0880F991F6A958D
S1130170E2F7809591B3892381BB0895813011F111
S113018030F08230D1F1833009F452C00895413007
S113019059F481E090E002C0880F991F6A95E2F754
S11301A09BB3892B8BBB089541115CC081E090E027
S11301B002C0880F991F6A95E2F780959BB3892343
S11301C08BBB0895413059F481E090E002C0880F60
S11301D0991F6A95E2F798B3892B88BB089541115A
S11301E041C081E090E002C0880F991F6A95E2F750
S11301F0809598B3892388BB0895413059F481E0F0
S113020090E002C0880F991F6A95E2F795B3892B95
S113021085BB0895411126C081E090E002C0880F9B
S1130220991F6A95E2F7809595B3892385BB089554
S1130230413059F481E090E002C0880F991F6A951B
S1130240E2F792B3892B82BB089541110BC081E080
S113025090E002C0880F991F6A95E2F7809592B3E7
S1130260892382BB0895813081F028F08230B9F06F
S11302708330F9F027C089B390E002C09595879543
S11302806A95E2F7982F91701DC086B390E002C082
S1130290959587956A95E2F7982F917013C083B36B
S11302A090E002C0959587956A95E2F7982F917032
S11302B009C080B390E002C0959587956A95E2F7EE
S11302C0982F9170892F0895813079F028F0823029
S11302D0A9F08330E1F00895613019F48FEF8ABBFF
S11302E0089561111CC01ABA0895613019F48FEF92
S11302F087BB0895611113C017BA0895613019F4CA
S11303008FEF84BB089561110AC014BA0895613057
S113031019F48FEF81BB0895611101C011BA0895DA
S1130320813041F028F0823039F0833039F008957B
S11303306BBB089568BB089565BB089562BB0895BF
S113034040E060E083E00E94490040E061E083E037
S11303500E94490040E062E083E00E94490040E0DE
S113036063E083E00E94490041E064E083E00E948E
S1130370490041E065E083E00E94490041E066E015
S113038083E00E94490041E067E083E00E94490065
S11303906FEF83E00E94900108958F929F92AF9235
S11303A0BF92CF92DF92EF92FF920F931F93CF935E
S11303B0DF930F2EF0E6AF2EF0E0BF2EF02DC12C10
S11303C0D12C41E064E083E00E94BE0041E065E09E
S11303D083E00E94BE0041E066E083E00E94BE002C
S11303E041E067E083E00E94BE00F50161915F0196
S11303F040E083E00E94BE0004E610E0E12CF12C12
S1130400812C912C05C0FFEF8F1A9F0A0F5F1F4F9D
S1130410E8018FEFE81AF80A688183E00E9433014B
S113042081114DC0688183E00E9433018823D1F398
S1130430E1E0CE16D104E1F024F4C114D10451F06A
S11304403EC082E0C816D10401F1E3E0CE16D10427
S113045049F135C0C4018114910409F43FC08130CD
S11304609105F1F182309105E9F1039741F53CC022
S1130470C40181149104D1F181309105C9F1823014
S11304809105C1F10397D9F437C0C40181149104D3
S1130490A9F181309105A1F18230910599F1039779
S11304A071F432C0C4018114910481F18130910549
S11304B079F18230910571F1039781F52DC0F4E053
S11304C0EF16F1040CF49FCF8FEFC81AD80AE4E0BA
S11304D0CE16D10409F075CF81E426C087E324C089
S11304E084E322C081E320C08FE31EC088E31CC0E4
S11304F085E31AC082E318C080E316C089E314C000
S113050086E312C083E310C08DE30EC08FE20CC0FB
S11305108AE20AC08DE208C08BE206C0F4E0EF165E
S1130520F1040CF470CF81E4DF91CF911F910F910E
S1130530FF90EF90DF90CF90BF90AF909F908F90FF
S1130540089541E061E081E00E94BE0083ED90E304
S11305500197F1F700C0000040E061E081E00E94F3
S1130560BE000895CF93C82F61E080E00E9464012B
S113057040E062E081E00E94BE0040E060E081E093
S11305800E94BE006C2F80E00E9490010E94A10294
S1130590CF910895CF93C82F61E080E00E94640159
S11305A041E062E081E00E94BE0040E060E081E062
S11305B00E94BE006C2F80E00E9490010E94A10264
S11305C0CF91089581E00E94B202089587E893E1F3
S11305D00197F1F700C0000061E080E00E9464012F
S11305E061E081E00E94640140E060E081E00E94FB
S11305F0BE0040E061E081E00E94BE0040E062E0B5
S113060081E00E94BE0088E30E94B2020E94E202DE
S113061086E00E94B20280E80E94B2028FE00E944B
S1130620B20208950F931F93CF93DF93D82FC92F4E
S113063061E080E00E94640141E062E081E00E94A8
S1130640BE0040E060E081E00E94BE000D2F1C2F40
S1130650C0E011C0CF5F0E94CA02C03121F480EC17
S11306600E94B20208C0C03231F40E94E20280E863
S11306700E94B202C0E0F80181918F018111EACF9A
S1130680DF91CF911F910F910895811105C080E8EA
S1130690860F0E94B2020895813021F480EC860F07
S11306A00E94B20208950E94A0010E94E6028AE616
S11306B090E00E94120360E081E00E944503F12C67
S11306C0D0E00E94CD01C82F8F3329F0813439F155
S11306D08D33E9F403C00E94E20221C088E890E06F
S11306E00E94A0032091680030916900821793074B
S11306F039F40E94E2028BE790E00E94120316C0D4
S11307000E94E20289E790E00E9412030FC00E9457
S1130710CA02F801E857FF4FC0830F5F1F4F83EDF4
S113072090E30197F1F700C00000CBCFE8E8F0E0D8
S1130730108211821282138214820F2D1D2FEFCF8B
S1130740FC0188279927E89421912032E9F3293084
S113075010F02E30C8F32B3241F02D3239F4689466
S113076004C00E94BE03820F911D219120532A30A0
S1130770C0F31EF4909581959F4F08957AE0979F5A
S1130780902D879F802D910D11240895F894FFCF0B
S11307900405060700010203D204656E7465722025
S11307A070617373776F726400696E636F727265E0
S10B07B063742070617373008F
S9030000FC
